S01100004156524932434C43442E7372656399
S11300000C945A000C9477000C9477000C947700AD
S11300100C9477000C9477000C9477000C94770080
S11300200C9477000C9477000C9477000C94770070
S11300300C9477000C9477000C9477000C94770060
S11300400C9477000C9477000C9477000C94770050
S11300500C9477000C9477000C9477000C94770040
S11300600C9477000C9477000C9477000C94770030
S11300700C9477000C9477000C9477000C94770020
S11300800C9477000C9477000C9477000C94770010
S11300900C9477000C9477000C9477000C94770000
S11300A00C9477000C9477000C9477000C947700F0
S11300B00C94770011241FBECFEFD8E0DEBFCDBF74
S11300C011E0A0E0B1E0EAE2F3E002C005900D9295
S11300D0AE30B107D9F721E0AEE0B1E001C01D9226
S11300E0AF30B207E1F70E9482010C9493010C94A3
S11300F000008FEF8093B800089584EA8093BC00D9
S1130100ECEBF0E080818823ECF708958093BB004A
S113011084E88093BC00ECEBF0E080818823ECF76A
S11301200895CF93DF93C82FD62F0E947D008D2F83
S11301300E9486008C2F0E94860084E98093BC0074
S1130140DF91CF910895CF93C82F80910E018460E1
S113015080930E016EE70E94910080E18A95F1F789
S113016000C0C295C07F80910E016EE78C2B0E9467
S1130170910080910E018B7F80930E016EE70E94A7
S1130180910080E18A95F1F700C0CF910895CF9353
S1130190DF93C82FD82FD295DF70611109C08091E9
S11301A00E018E7F80930E016EE70E94910008C0BD
S11301B080910E01816080930E016EE70E94910090
S11301C08D2F0E94A3008C2F0E94A300DF91CF915A
S11301D00895CF93C82F80910E01816080930E0102
S11301E06EE70E9491008C2F82958F700E94A3006D
S11301F08C2F0E94A300CF91089510920E010E94AB
S1130200790085EA9EE00197F1F700C0000083E0E1
S11302100E94A30087EE93E00197F1F700C000006D
S113022083E00E94A30091E29A95F1F7000083E035
S11302300E94A30089EF90E00197F1F700C000004D
S113024082E00E94A30089EF90E00197F1F700C0DB
S1130250000060E088E20E94C70089EF90E0019707
S1130260F1F700C0000060E08CE00E94C70089EF55
S113027090E00197F1F700C0000060E086E00E9482
S1130280C70089EF90E00197F1F700C0000080916A
S11302900E01886080930E016EE70E9491008091A8
S11302A00E018D7F80930E016EE70E9491000895E8
S11302B060E081E00E94C70086E791E00197F1F7D2
S11302C000C00000089590E4699F800D112460E04F
S11302D080680E94C70008950F931F93CF93FC0179
S11302E08081882359F08F01C0E00E94E900CF5F2C
S11302F0F801EC0FF11D80818111F7CFCF911F918F
S11303000F9108950E94FD000E94580180E091E041
S11303100E946C0161E080E00E94630188E091E04A
S10D03200E946C01FFCFF894FFCF98
S111032A4D4552484142410044554E59410050
S9030000FC
