S01E000041565241445632365F526F74617279456E636F6465722E737265633A
S11300000C9434000C9451000C9451000C94510045
S11300100C9451000C9451000C9451000C94510018
S11300200C9451000C9451000C9451000C94510008
S11300300C9451000C9451000C9451000C945100F8
S11300400C9451000C9451000C9408010C943D0143
S11300500C9451000C9451000C9451000C945100D8
S11300600C9451000C94510011241FBECFEFD8E022
S1130070DEBFCDBF11E0A0E0B1E0EEEEF8E002C0DB
S113008005900D92A630B107D9F722E0A6E0B1E0C1
S113009001C01D92AB30B207E1F70E9488000C94B6
S11300A075040C9400009B01AC0160E472E48FE0E1
S11300B090E00E946901215031093093C5002093DA
S11300C0C400E1ECF0E0808188618083E2ECF0E040
S11300D080818660808308959091C00095FFFCCF55
S11300E08093C6000895CF93DF93EC0103C021965B
S11300F00E946C0088818111FACFDF91CF9108951D
S11301004A9902C080E001C082E04B998160089561
S1130110CF93DF93CDB7DEB72A970FB6F894DEBF3F
S11301200FBECDBF8AB18B7F8AB98AB1877F8AB966
S11301308BB184608BB98BB188608BB960E875E250
S113014080E090E00E9453000E948000182F789471
S1130150E12CF12C0E948000082F181709F451C0DB
S1130160133011F4813021F0111121C00230F9F45F
S11301708FEFE81AF80AFF92EF9280E091E09F93E4
S11301808F93CE0101966C019F938F930E948B01F4
S1130190C6010E94730083E091E00E9473000F90F7
S11301A00F900F900F900F900F90102F2AC01230C5
S11301B011F4002321F0113009F5033009F591E021
S11301C0E91AF108FF92EF9280E091E09F938F93F8
S11301D0CE0101966C019F938F930E948B01C601FF
S11301E00E94730083E091E00E9473000F900F90CF
S11301F00F900F900F900F90102F03C0102F01C07D
S1130200102F8FE99FE00197F1F700C00000A2CF03
S11302101F920F920FB60F9211242F933F934F9377
S11302205F938F939F93EF93FF932091C00030913E
S1130230C60028718091080190E001968F77992774
S11302404091070150E08417950739F08093080125
S1130250FC01E55FFE4F308301C022E020930601DC
S1130260FF91EF919F918F915F914F913F912F91CA
S11302700F900FBE0F901F9018951F920F920FB6FC
S11302800F9211248F939F93EF93FF9390910A0100
S113029080910901981779F08091090190E0019605
S11302A08F77992780930901FC01E557FE4F8081E0
S11302B08093C60005C0E1ECF0E080818F7D8083EF
S11302C0FF91EF919F918F910F900FBE0F901F9010
S11302D01895A1E21A2EAA1BBB1BFD010DC0AA1F73
S11302E0BB1FEE1FFF1FA217B307E407F50720F09B
S11302F0A21BB30BE40BF50B661F771F881F991F16
S11303001A9469F760957095809590959B01AC015E
S1130310BD01CF010895AEE0B0E0E1E9F1E00C9455
S11303204C040D891E8986E08C831A8309838FEF20
S11303309FE79E838D83AE01475E5F4F6F89788D03
S1130340CE0101960E94AD01EF81F885E00FF11F07
S113035010822E96E4E00C946804ABE0B0E0E3EB8A
S1130360F1E00C943E046C017B018A01FC011782CC
S11303701682838181FFCCC1CE0101963C01F60136
S11303809381F70193FD859193FF81917F018823E8
S113039009F4BAC1853239F493FD859193FF8191B3
S11303A07F01853229F4B60190E00E94A403E7CFCF
S11303B0912C212C312CFFE1F315D8F08B3279F0FC
S11303C038F4803279F08332A1F4232D20611DC0EA
S11303D08D3261F0803369F4232D216016C0832DA2
S11303E08260382EE32DE4603E2E2AC0F32DF8609F
S11303F01DC037FC2DC020ED280F2A3040F08E326E
S1130400B9F436FC81C1232D2064322E19C036FE86
S113041006C08AE0989E200D1124922E11C0EAE0B5
S11304202E9E200D1124222EF32DF0623F2E08C0A3
S11304308C3621F4832D8068382E02C0883641F42E
S1130440F70193FD859193FF81917F018111B3CFD2
S1130450982F9F7D9554933028F40C5F1F4F9FE392
S113046099830DC0833631F0833771F0833509F0F9
S113047059C021C0F801808189830E5F1F4F8824F1
S11304808394912C530113C02801F2E04F0E511CA8
S1130490F801A080B18036FE03C0692D70E002C06F
S11304A06FEF7FEFC5010E9499034C018201F32D88
S11304B0FF773F2E16C0280122E0420E511CF8019E
S11304C0A080B18036FE03C0692D70E002C06FEFDA
S11304D07FEFC5010E948E034C01F32DF0683F2E7F
S11304E0820133FC1BC0822D90E088169906B0F47B
S11304F0B60180E290E00E94A4032A94F4CFF501AF
S113050037FC859137FE81915F01B60190E00E942E
S1130510A40321102A9421E0821A910881149104E1
S113052071F7E8C0843611F0893641F5F80137FED9
S113053007C060817181828193810C5F1F4F08C065
S113054060817181072E000C880B990B0E5F1F4F81
S1130550F32DFF763F2E97FF09C0909580957095F7
S113056061957F4F8F4F9F4FF0683F2E2AE030E018
S1130570A3010E94E003882E861845C0853731F414
S1130580232D2F7EB22E2AE030E025C0932D997FB3
S1130590B92E8F36C1F018F4883579F0B5C080379C
S11305A019F0883721F0B0C0E92FE061BE2EB4FE07
S11305B00DC0FB2DF460BF2E09C034FE0AC0292FE4
S11305C02660B22E06C028E030E005C020E130E00D
S11305D002C020E132E0F801B7FE07C060817181FA
S11305E0828193810C5F1F4F06C06081718180E01E
S11305F090E00E5F1F4FA3010E94E003882E86182F
S1130600FB2DFF773F2E36FE0DC0232D2E7FA22E0D
S1130610891458F434FE0BC032FC09C0832D8E7E3D
S1130620A82E05C0B82CA32C03C0B82C01C0B92C2B
S1130630A4FE0FC0FE01E80DF11D8081803321F47A
S11306409A2D997EA92E09C0A2FE06C0B394B39434
S113065004C08A2D867809F0B394A3FC11C0A0FECF
S113066006C0B21488F4280C922C9B180EC0B21445
S113067060F4B60180E290E00E94A403B394F7CF43
S1130680B21418F42B1802C0982C212CA4FE10C00C
S1130690B60180E390E00E94A403A2FE17C0A1FC6F
S11306A003C088E790E002C088E590E0B6010CC082
S11306B08A2D867859F0A1FE02C08BE201C080E247
S11306C0A7FC8DE2B60190E00E94A403891438F4DB
S11306D0B60180E390E00E94A4039A94F7CF8A9431
S11306E0F301E80DF11D8081B60190E00E94A4039E
S11306F08110F5CF222009F442CEB60180E290E0C9
S11307000E94A4032A94F6CFF6018681978102C041
S11307108FEF9FEF2B96E2E10C945A04FC010590B5
S1130720615070400110D8F7809590958E0F9F1FEF
S11307300895FC016150704001900110D8F7809534
S113074090958E0F9F1F08950F931F93CF93DF9360
S1130750FB01238121FD03C08FEF9FEF2CC022FFFB
S113076016C046815781248135814217530744F4CA
S1130770A081B1819D012F5F3F4F318320838C93F2
S1130780268137812F5F3F4F3783268314C08B0127
S1130790EC01FB010084F185E02D0995892BE1F63C
S11307A0D80116968D919C911797019617969C9354
S11307B08E931697CE01DF91CF911F910F910895DB
S11307C0FA01AA27283051F1203181F1E8946F937E
S11307D06E7F6E5F7F4F8F4F9F4FAF4FB1E03ED024
S11307E0B4E03CD0670F781F891F9A1FA11D680FC2
S11307F0791F8A1F911DA11D6A0F711D811D911DF5
S1130800A11D20D009F468943F912AE0269F112469
S11308103019305D3193DEF6CF010895462F4770CD
S1130820405D4193B3E00FD0C9F7F6CF462F4F7028
S1130830405D4A3318F0495D31FD4052419302D086
S1130840A9F7EACFB4E0A69597958795779567952C
S1130850BA95C9F700976105710508959B01AC012C
S11308600A2E06945795479537952795BA95C9F753
S1130870620F731F841F951FA01D08952F923F922E
S11308804F925F926F927F928F929F92AF92BF929C
S1130890CF92DF92EF92FF920F931F93CF93DF9348
S11308A0CDB7DEB7CA1BDB0B0FB6F894DEBF0FBEA5
S11308B0CDBF09942A88398848885F846E847D84F2
S11308C08C849B84AA84B984C884DF80EE80FD80F4
S11308D00C811B81AA81B981CE0FD11D0FB6F8946A
S11108E0DEBF0FBECDBFED010895F894FFCF2B
S10908EE2569000A000068
S9030000FC
