S020000041565241445632395F4269746669656C6445726973696D312E73726563B9
S11300000C9434000C943E000C943E000C943E007E
S11300100C943E000C943E000C943E000C943E0064
S11300200C943E000C943E000C943E000C943E0054
S11300300C943E000C943E000C943E000C943E0044
S11300400C943E000C943E000C943E000C943E0034
S11300500C943E000C943E000C943E000C943E0024
S11300600C943E000C943E0011241FBECFEFD8E048
S1130070DEBFCDBF0E9440000C9450000C940000E1
S11300808AB184608AB98AB188608AB98AB1806188
S11300908AB98BB184608BB98BB18B7F8BB9F9CF63
S10700A0F894FFCFFE
S9030000FC
