S01D0000415652414456315F5247424C45444C6962726172792E737265632E
S11300000C9461000C946B000C946B000C946B00CA
S11300100C946B000C946B000C946B000C946B00B0
S11300200C946B000C946B000C946B000C946B00A0
S11300300C946B000C946B000C946B000C946B0090
S11300400C946B000C946B000C946B000C946B0080
S11300500C946B000C946B000C946B000C946B0070
S11300600C946B000C946B000C946B000C946B0060
S11300700C946B000C946B000C946B000C946B0050
S11300800C946B000C946B000C946B000C946B0040
S11300900C946B000C946B000C946B000C946B0030
S11300A00C946B000C946B000C946B000C946B0020
S11300B00C946B00E500E700E900EB00EE00F100B2
S11300C0F40011241FBECFEFD8E0DEBFCDBF0E94E5
S11300D06D000C94FE000C9400000E94D60080E099
S11300E090E00E94DA002FEF89E698E121508040E9
S11300F09040E1F700C0000081E090E00E94DA0047
S11301002FEF89E698E1215080409040E1F700C04C
S1130110000082E090E00E94DA002FEF89E698E187
S1130120215080409040E1F700C0000086E090E05C
S11301300E94DA002FEF89E698E121508040904038
S1130140E1F700C0000087B1837F87B988B18C6074
S113015088B9C0E0D0E006E010E0E12CF12C32993F
S113016012C02FEF83EC99E0215080409040E1F7DA
S113017000C000002196C730D10514F0C02FD12F44
S1130180CE010E94DA003399EACF9FEF23EC89E095
S1130190915020408040E1F700C00000219712F404
S11301A0CE2DDF2DCE010E94DA00D9CF8DB187602C
S11301B08DB908952EB1287F2EB987309105B8F4F2
S11301C0FC01E65AFF4F0C94F800709A0895719A56
S11301D00895729A0895729A719A0895709A719A0C
S11301E00895709A729A0895709A729A719A0895FD
S11301F0EE0FFF1F0590F491E02D0994F894FFCFC2
S9030000FC
