S01E000041565241445632305F4D4158373231394D41545249582E73726563F3
S11300000C9434000C943E000C943E000C943E007E
S11300100C943E000C943E000C943E000C943E0064
S11300200C943E000C943E000C943E000C943E0054
S11300300C943E000C943E000C943E000C943E0044
S11300400C943E000C943E000C943E000C943E0034
S11300500C943E000C943E000C943E000C943E0024
S11300600C943E000C943E0011241FBECFEFD8E048
S1130070DEBFCDBF0E9468000C94F0000C94000019
S1130080CF93C62F2A980E94C2008C2F0E94C200D0
S11300902A9ACF910895CF93C8E06FE08C2F0E94E5
S11300A04000C150D1F7CF9108956FEF89E00E94CD
S11300B0400067E08BE00E94400060E08AE00E941C
S11300C0400061E08CE00E9440000E944B000895D3
S11300D081E00E94AB000E9455002FEF81EE94E076
S11300E0215080409040E1F700C00000C1E0D0E022
S11300F00AE010E00F2EF4E6CF2ED12CF02D02C032
S1130100C0E0D0E0CE01B8010E94C8007B01682F96
S113011081E00E944000C701B8010E94C800682F16
S113012082E00E944000CE01B6010E94C80083E034
S11301300E9440002FEF84E39CE0215080409040D7
S1130140E1F700C000000E944B002196C83E23E066
S1130150D207B4F6D7CF9CB59F7D9CBD811104C056
S1130160249A80E48CBD089584B1886284B9229A6B
S11301708CB580658CBD8CB581608CBD8DB581607E
S11301808DBD08958EBD0DB407FEFDCF8EB50895C7
S113019097FB072E16F4009407D077FD09D00E9430
S11301A0DC0007FC05D03EF4909581959F4F08959F
S11301B0709561957F4F0895AA1BBB1B51E107C041
S11301C0AA1FBB1FA617B70710F0A61BB70B881FE3
S11301D0991F5A95A9F780959095BC01CD01089572
S10701E0F894FFCFBD
S9030000FC
