:100000000C9434000C943E000C943E000C943E0082
:100010000C943E000C943E000C943E000C943E0068
:100020000C943E000C943E000C943E000C943E0058
:100030000C943E000C943E000C943E000C943E0048
:100040000C943E000C943E000C943E000C943E0038
:100050000C943E000C943E000C943E000C943E0028
:100060000C943E000C943E0011241FBECFEFD8E04C
:10007000DEBFCDBF0E9482000C94A0010C94000052
:10008000EAE7F0E0808187608083ACE7B0E08C91A4
:1000900080648C9380818068808380818064808389
:1000A00008951F93CF93DF93182F24E630E040E0AC
:1000B00050E0BA01ACE7B0E0EAE7F0E0C8E7D0E032
:1000C0009C91907F9C939C91912B9C9390819064A8
:1000D0009083908196FDFDCF88819981480F591FAB
:1000E000611D711D2150310959F7CB01BA0124E678
:1000F00030E040E050E00E947E01C901DF91CF91E5
:100100001F9108950E9440000E94AD0080E00E946F
:100110005100BC0180E090E00E94C3002FEF81EE0F
:1001200094E0215080409040E1F700C00000EECF05
:10013000CF93C62F2A980E9478018C2F0E947801B5
:100140002A9ACF910895CF93C8E06FE08C2F0E9438
:100150009800C150D1F7CF91089581E00E946101CC
:100160006FEF89E00E94980067E08BE00E949800A2
:1001700060E08AE00E94980061E08CE00E949800B4
:100180000E94A30008954F925F926F927F928F9288
:100190009F92AF92BF92CF92DF92EF92FF924B016C
:1001A0005C010E94A3000F2EFAE0CF2ED12CE12C8F
:1001B000F12CF02DC501B401A70196010E947E012A
:1001C00029013A0181E00E949800C301B201A70110
:1001D00096010E947E0182E00E949800C501B40150
:1001E00024E630E040E050E00E947E01CA01B901FF
:1001F000A70196010E947E0183E00E949800C5013C
:10020000B40128EE33E040E050E00E947E01CA01D4
:10021000B901A70196010E947E0184E00E94980026
:10022000C501B40120E137E240E050E00E947E01C8
:10023000CA01B901A70196010E947E0185E00E94D2
:100240009800C501B40120EA36E841E050E00E9480
:100250007E01CA01B901A70196010E947E0186E0D4
:100260000E949800C501B40120E432E44FE050E060
:100270000E947E01CA01B901A70196010E947E0178
:1002800087E00E949800C501B40120E836E948E9FA
:1002900050E00E947E01CA01B901A70196010E94A7
:1002A0007E0188E00E949800FF90EF90DF90CF9051
:1002B000BF90AF909F908F907F906F905F904F9086
:1002C00008959CB59F7D9CBD811104C0249A80E453
:1002D0008CBD089584B1886284B9229A8CB58065FA
:1002E0008CBD8CB581608CBD8DB581608DBD089550
:1002F0008EBD0DB407FEFDCF8EB50895A1E21A2E76
:10030000AA1BBB1BFD010DC0AA1FBB1FEE1FFF1FB9
:10031000A217B307E407F50720F0A21BB30BE40B09
:10032000F50B661F771F881F991F1A9469F7609550
:100330007095809590959B01AC01BD01CF0108950A
:04034000F894FFCF5F
:00000001FF
