S01A0000415652414456375F445331384232304C49422E7372656335
S11300000C94B1000C94CE000C94CE000C94CE0051
S11300100C94CE000C94CE000C94CE000C94CE0024
S11300200C94CE000C94CE000C94CE000C94CE0014
S11300300C94CE000C94CE000C94CE000C94CE0004
S11300400C94CE000C94CE000C94F6030C9424046F
S11300500C94CE000C94CE000C94CE000C94CE00E4
S11300600C94CE000C94CE0000407A10F35A00A0F9
S1130070724E18090010A5D4E80000E8764817006D
S113008000E40B54020000CA9A3B000000E1F505AD
S1130090000080969800000040420F000000A086F7
S11300A001000000102700000000E8030000000029
S11300B06400000000000A000000000001000000CD
S11300C000002C76D888DC674F0823DFC1DFAE59E7
S11300D0E1B1B796E5E3E453C63AE651997696E87A
S11300E0E6C28426EB898C9B62ED407C6FFCEFBCFE
S11300F09C9F40F2BAA56FA5F490055A2AF75C9329
S11301006B6CF9676DC11BFCE0E40D47FEF520E65E
S1130110B500D0ED902E0300943577050080841E41
S1130120080000204E0A000000C80C333333330F9C
S1130130986E12831141EF8D2114893BE65516CF39
S1130140FEE6DB18D1844B381BF77C1D901DA4BB45
S1130150E424203284725E228100C9F124ECA1E5FA
S11301603D2711241FBECFEFD8E0DEBFCDBF11E085
S1130170A0E0B1E0E2E2F0E102C005900D92A23805
S1130180B107D9F721E0A2E8B1E001C01D92A13D79
S1130190B207E1F70E946F030C940F080C9400005F
S11301A0FC01A081B1814E9121E030E0C9010280BF
S11301B002C0880F991F0A94E2F7842B8C938FE76F
S11301C097E00197F1F700C00000A081B1819E91F2
S11301D0A901028002C0440F551F0A94E2F7842F3C
S11301E0809589238C938FE391E00197F1F700C008
S11301F00000A081B18112978C91028002C0220F6D
S1130200331F0A94E2F78223EFE3F6E03197F1F724
S113021000C000000895FC01A081B1818E9121E00D
S113022030E0028002C0220F331F0A94E2F7282B29
S11302302C936623A9F080E58A95F1F7A081B1811A
S11302402E9181E090E0028002C0880F991F0A94E9
S1130250E2F7809582238C9390EF9A95F1F70895B5
S11302608FEE90E00197F1F700C00000A081B1810A
S11302702E9181E090E0028002C0880F991F0A94B9
S1130280E2F7809582238C930895FC01A081B181CB
S11302904E9181E090E09C01028002C0220F331F46
S11302A00A94E2F7242B2C9325E12A95F1F7000018
S11302B0A081B1812E91028002C0880F991F0A94F7
S11302C0E2F7809582238C938AE28A95F1F700C045
S11302D0A081B18112972C9130E0C901028002C043
S11302E0959587950A94E2F78170EFEBF0E03197EA
S11302F0F1F700C000000895EF92FF920F931F934F
S1130300CF93DF937C01D62F08E010E0C1E06D2F7E
S11303106C23C7010E940B01CC0F01501109B9F7DE
S1130320DF91CF911F910F91FF90EF900895EF927D
S1130330FF920F931F93CF93DF937C01C8E0D0E02B
S113034011E000E0C7010E9445018111012B110F4A
S11303502197C1F7802FDF91CF911F910F91FF90CB
S1130360EF9008956623B1F0FC016150262F30E030
S11303702F5F3F4F280F391F80E09191892798E024
S11303804CE8869508F484279A95D9F7E217F30781
S1130390A1F7089580E00895EF92FF920F931F93C1
S11303A0CF93DF938C0163E30E947C01E8012396E1
S11303B078018BE0E80EF11CC8010E949701899333
S11303C0CE15DF05C9F767E0C80103960E94B201A4
S11303D091E0F8012285281390E0892FDF91CF91D5
S11303E01F910F91FF90EF9008951F93CF93DF9388
S11303F0EC01798368834A83FB01308181E090E0DA
S1130400FC0102C0EE0FFF1F4A95E2F72E2F209544
S11304102323FB012083E881F98122910A8002C011
S1130420880F991F0A94E2F7809582238083CE0176
S11304300E94D000182F811111C0CE010E94CC015E
S1130440882371F08B81803139F0883259F481E04E
S11304508C8B8FE78F8707C01C8A05C011E003C00F
S113046011E001C011E0812FDF91CF911F91089518
S1130470EF92FF920F931F93CF93DF938C010E940F
S1130480D0006CECC8010E947C016EEBC8010E9494
S11304907C01E8012B96780184E1E80EF11CC80187
S11304A00E9497018993CE15DF05C9F768E0C8015A
S11304B00B960E94B20191E0F8012389281390E081
S11304C0892FDF91CF911F910F91FF90EF900895A5
S11304D0CF93DF93EC010E94D0006CECCE010E941C
S11304E07C0164E4CE010E947C018F858F3371F01E
S11304F08F35B1F08F31F1F42FEF86E994E021507C
S113050080409040E1F700C000001DC02FEF8DE255
S113051099E0215080409040E1F700C0000013C0F2
S11305202FE78FE492E1215080409040E1F700C032
S1130530000009C02FEF8EE994E2215080409040E2
S1130540E1F700C00000CE010E943802DF91CF9194
S11305500895FC012489213009F467870895CF9315
S1130560DF93EC010E94D0006CECCE010E947C0170
S11305706EE4CE010E947C016D85CE010E947C0157
S11305806E85CE010E947C018C89813021F46F85B7
S1130590CE010E947C01DF91CF910895FC01648516
S11305A070E0762F66278385682B772314F42FEF6A
S11305B001C021E0848981110DC0072E000C880B35
S11305C0990B0E948D0420E030E040E05FE30E943C
S11305D0C804089587858F3359F020F48F3109F4C6
S11305E056C079C08F3531F18F3709F443C073C0D9
S11305F0AB01772324F444275527461B570BCA0124
S113060099230CF40396AC01559547955595479558
S11306102403B001259F700D1124072E000C880BB4
S1130620990B0E948D0420E030E040E85EE30E94D4
S1130630C8040895AB01772324F444275527461BA7
S1130640570BCA0199230CF40196AC0155954795B3
S11306502403B001259F700D1124072E000C880B74
S1130660990B0E948D0420E030E040E05EE30E949C
S1130670C8040895072E000C880B990B0E948D0462
S113068020E030E040E85DE30E94C8040895AB0137
S1130690772324F444275527461B570BCA01992373
S11306A00CF40796AC015595479555954795559586
S11306B047952403B001259F700D1124072E000CCB
S11306C0880B990B0E948D0420E030E040E05FE34A
S11306D00E94C804089560E070E0CB0108950F9370
S11306E01F93CF93DF93CDB7DEB765970FB6F8941A
S11306F0DEBF0FBECDBF789487E690E00E944E0423
S11307002FEF81EE94E0215080409040E1F700C04B
S1130710000042E06BE270E0CE0101960E94F50118
S1130720811153C089E391E00E947C048DE00E9412
S113073067046FE1CE0101960E94A902CE010196E1
S11307400E94AF02CE0101960E9468028823C1F084
S11307508CE591E00E947C04CE0101960E94CE02B9
S113076007EC11E024E049E00E948605C8010E94DC
S11307707C0483E40E9467048DE00E94670404C043
S113078085E791E00E947C04CE0101960E946802F4
S11307908823D1F38CE591E00E947C04CE0101967C
S11307A00E94CE0207EC11E024E049E00E94860595
S11307B0C8010E947C0483E40E9467048DE00E94C7
S11307C067048AE00E946704DFCF80E091E00E9422
S11307D07C048FEF9FEF65960FB6F894DEBF0FBED3
S11307E0CDBFDF91CF911F910F9108951F920F926A
S11307F00FB60F9211242F938F939F93EF93FF9330
S11308008091C0002091C6008C71E0918401EF5F5B
S1130810EF7190918301E91739F0E0938401F0E0DE
S1130820E957FE4F208301C082E090918201892B19
S113083080938201FF91EF919F918F912F910F905F
S11308400FBE0F901F9018951F920F920FB60F9224
S113085011248F939F93EF93FF939091860180913E
S11308608501981769F0E0918501EF5FEF71E093DE
S11308708501F0E0E955FE4F80818093C60005C0F4
S1130880E1ECF0E080818F7D8083FF91EF919F9177
S11308908F910F900FBE0F901F90189510928601A4
S11308A010928501109284011092830199231CF403
S11308B022E02093C00090789093C5008093C400F8
S11308C088E98093C10086E08093C2000895209156
S11308D086012F5F2F71909185012917E1F3E22F93
S11308E0F0E0E955FE4F808320938601E1ECF0E0CF
S11308F08081806280830895CF93DF93EC018881A7
S1130900882331F021960E94670489918111FBCFDD
S1130910DF91CF910895E89409C097FB3EF4909538
S11309208095709561957F4F8F4F9F4F9923A9F0C4
S1130930F92F96E9BB279395F69587957795679553
S1130940B795F111F8CFFAF4BB0F11F460FF1BC097
S11309506F5F7F4F8F4F9F4F16C0882311F096E92A
S113096011C0772321F09EE8872F762F05C06623D8
S113097071F096E8862F70E060E02AF09A95660F91
S1130980771F881FDAF7880F9695879597F908954A
S11309900E94DB040C944C050E943E0538F00E9432
S11309A0450520F0952311F00C9435050C943B0576
S11309B011240C9480050E945D0570F3959FC1F38A
S11309C0950F50E0551F629FF001729FBB27F00DF9
S11309D0B11D639FAA27F00DB11DAA1F649F66274E
S11309E0B00DA11D661F829F2227B00DA11D621F9D
S11309F0739FB00DA11D621F839FA00D611D221F57
S1130A00749F3327A00D611D231F849F600D211D3A
S1130A10822F762F6A2F11249F5750409AF0F1F0BD
S1130A2088234AF0EE0FFF1FBB1F661F771F881F26
S1130A3091505040A9F79E3F510580F00C94350524
S1130A400C9480055F3FE4F3983ED4F38695779544
S1130A506795B795F795E7959F5FC1F7FE2B880FCC
S1130A60911D9695879597F9089597F99F6780E862
S1130A7070E060E008959FEF80EC089500240A94EC
S1130A801616170618060906089500240A94121665
S1130A901306140605060895092E0394000C11F498
S1130AA0882352F0BB0F40F4BF2B11F460FF04C045
S1130AB06F5F7F4F8F4F9F4F089557FD9058440F9E
S1130AC0551F59F05F3F71F04795880F97FB991FA9
S1130AD061F09F3F79F08795089512161306140666
S1130AE0551FF2CF4695F1DF08C0161617061806F3
S1130AF0991FF1CF86957105610508940895E894CE
S1130B00BB2766277727CB0197F90895EF920F93B8
S1130B101F93CF93DF93E80147FD02C034E001C087
S1130B2034E1042E000C550B57FF03C05195419539
S1130B305109E32E022F242FAE010E94A605CE01F7
S1130B40DF91CF911F910F91EF900895A9E0B0E04C
S1130B50ECEAF5E00C94DE076A01122FB02E2BE3C9
S1130B60201720F0FF24F394F00E02C02CE3F22EA1
S1130B700F2D27E0AE014F5F5F4F0E940007BC01BD
S1130B804981842F8970813031F0E1FC06C0E0FE98
S1130B9006C090E205C09DE203C09BE201C090E064
S1130BA05E2D507143FF3CC0911102C083E001C02F
S1130BB084E0811718F4212F281B01C020E0511173
S1130BC00BC0F601822F30E2882319F03193815053
S1130BD0FBCFC20ED11C20E0992329F0D6019C93AF
S1130BE0F60131966F01C6010396E2FE0AC03EE4A7
S1130BF0D6013C9341E411964C93119712963C9381
S1130C0006C03EE6F601308341E641833283FC01AF
S1130C10322F40E2332309F442C041933150FACFDA
S1130C2042FF44C0911102C083E001C084E08117F7
S1130C3018F4212F281B01C020E051110BC0F6012C
S1130C40822F30E2882319F031938150FBCFC20EFA
S1130C50D11C20E0992329F0D6019C93F60131960A
S1130C606F01C6010396E2FE0BC039E4D6013C9342
S1130C703EE411963C93119736E412963C9307C0D8
S1130C8039E6F60130833EE6318336E63283FC01F1
S1130C90322F40E2332319F041933150FBCFFC0152
S1130CA0E20FF11D10828EEF9FEFA6C021E030E02D
S1130CB0911102C020E030E0161617061CF4FB0167
S1130CC0319602C0E1E0F0E02E0F3F1FBB2021F07F
S1130CD0EB2DF0E0319602C0E0E0F0E02E0F3F1F74
S1130CE0E12FF0E02E173F071CF4121B212F01C047
S1130CF020E08E2D887159F4F601822F30E288238A
S1130D0019F031938150FBCFC20ED11C20E09923FE
S1130D1029F0D6019C93F60131966F0151110BC055
S1130D20F601822F90E3882319F091938150FBCF31
S1130D30C20ED11C20E00F2D060F9A81342F307182
S1130D4044FF03C0913309F40150101624F4093010
S1130D5018F008E001C001E0AB0177FF02C040E0F9
S1130D6050E0FB01E41BF50BA1E0B0E0AC0FBD1FAC
S1130D70EA0FFB1F8EE2A82E4B01801A91080B2D5F
S1130D8010E01195019511094F3FBFEF5B0721F466
S1130D90D601AC9211966D01641775072CF0841678
S1130DA0950614F4818101C080E3415051093196C4
S1130DB0D60111967D014017510724F0D6018C937A
S1130DC06701E2CF6417750739F4963320F495333D
S1130DD019F4311101C081E3F6018083F701822FF8
S1130DE090E2882319F091938150FBCFF701E20F31
S1130DF0F11D108280E090E02996ECE00C94FA0753
S1130E00283008F027E03327DA01990F311D87FDD8
S1130E10916000966105710539F432602E5F3D934F
S1130E2030E32A95E1F708959F3F30F0803871054B
S1130E30610509F03C5F3C5F3D93913008F08068A8
S1130E40911DDF93CF931F930F93FF92EF92192F6E
S1130E50987F9695E92F96959695E90FFF27EE537F
S1130E60FF4F99273327EE24FF24A701E7010590BC
S1130E700894079428F4360FE71EF81E491F511DE5
S1130E80660F771F881F991F0694A1F70590079492
S1130E9028F4E70EF81E491F561FC11D770F881F3F
S1130EA0991F661F0694A1F70590079428F4F80E7D
S1130EB0491F561FC71FD11D880F991F661F771F13
S1130EC00694A1F70590079420F4490F561FC71FF5
S1130ED0D81F990F661F771F881F0694A9F784915E
S1130EE01095177041F0D695C79557954795F79487
S1130EF0E7941A95C1F7E8E6F0E068941590159127
S1130F0035916591959105907FE27395E118F10A09
S1130F10430B560BC90BD009C0F7E10CF11E431F5C
S1130F20561FC91FD01D7EF4703311F48A95E6CF85
S1130F30E894015030F0080F0AF40027021708F46F
S1130F40202F2395022F7A3328F079E37D932A9575
S1130F50E9F710C07D932A9589F6069497956795CD
S1130F60379517951794E118F10A430B560BC90BE3
S1130F70D00998F023957E9173957A3308F070E345
S1130F807C932013B8F77E9170617D9330F0839544
S1130F9071E37D9370E32A95E1F71124EF90FF90BC
S1130FA00F911F91CF91DF91992787FD9095089517
S1130FB02F923F924F925F926F927F928F929F9265
S1130FC0AF92BF92CF92DF92EF92FF920F931F9353
S1130FD0CF93DF93CDB7DEB7CA1BDB0B0FB6F89404
S1130FE0DEBF0FBECDBF09942A88398848885F8444
S1130FF06E847D848C849B84AA84B984C884DF80B5
S1131000EE80FD800C811B81AA81B981CE0FD11D98
S11310100FB6F894DEBF0FBECDBFED010895F8946E
S1051020FFCFFC
S11310224572726F722121212043616E206E6F74AA
S11310322066696E6420312D576972652064657675
S1131042696365206174746163686564206F6E20EE
S1131052746865206275732100312D5769726520A9
S11310626465766963652064657465637465642088
S11310726F6E20746865206275732E0043757272F8
S1131082656E742054656D70657261747572652045
S113109269733A2000435243206572726F722121B0
S10510A2210027
S9030000FC
