:100000000C9434000C943E000C943E000C943E0082
:100010000C943E000C943E000C943E000C943E0068
:100020000C943E000C943E000C943E000C943E0058
:100030000C943E000C943E000C943E000C943E0048
:100040000C943E000C943E000C943E000C943E0038
:100050000C943E000C943E000C943E000C943E0028
:100060000C943E000C943E0011241FBECFEFD8E04C
:10007000DEBFCDBF0E9440000C944F010C940000E5
:100080000E9460000E9456006EE471E68CEB90E0E6
:100090000E947600FFCFCF93C62F2A980E94270197
:1000A0008C2F0E9427012A9ACF910895CF93C8E000
:1000B0006FE08C2F0E944B00C150D1F7CF91089573
:1000C00081E00E9410016FEF89E00E944B0067E021
:1000D0008BE00E944B0060E08AE00E944B0061E0F0
:1000E0008CE00E944B000E94560008954F925F9250
:1000F0006F927F928F929F92AF92BF92CF92DF9238
:10010000EF92FF924B015C010F2EFAE0CF2ED12C23
:10011000E12CF12CF02DA70196010E942D0129015F
:100120003A0181E00E944B00C301B201A701960190
:100130000E942D0182E00E944B00C501B40124E61B
:1001400030E040E050E00E942D01CA01B901A70152
:1001500096010E942D0183E00E944B00C501B4016D
:1001600028EE33E040E050E00E942D01CA01B901C1
:10017000A70196010E942D0184E00E944B00C50159
:10018000B40120E137E240E050E00E942D01CA01B5
:10019000B901A70196010E942D0185E00E944B0044
:1001A000C501B40120EA36E841E050E00E942D018B
:1001B000CA01B901A70196010E942D0186E00E94A3
:1001C0004B00C501B40120E432E44FE050E00E944E
:1001D0002D01CA01B901A70196010E942D0187E0F6
:1001E0000E944B00C501B40120E836E948E950E01F
:1001F0000E942D01CA01B901A70196010E942D019B
:1002000088E00E944B00FF90EF90DF90CF90BF906E
:10021000AF909F908F907F906F905F904F900895D8
:100220009CB59F7D9CBD811104C0249A80E48CBD47
:10023000089584B1886284B9229A8CB580658CBD9A
:100240008CB581608CBD8DB581608DBD08958EBDEE
:100250000DB407FEFDCF8EB50895A1E21A2EAA1B9C
:10026000BB1BFD010DC0AA1FBB1FEE1FFF1FA21766
:10027000B307E407F50720F0A21BB30BE40BF50B63
:10028000661F771F881F991F1A9469F760957095EC
:10029000809590959B01AC01BD01CF010895F89424
:0202A000FFCF8E
:00000001FF
