:100000000C945A000C9464000C9464000C946400EA
:100010000C9464000C9464000C9471000C946400C3
:100020000C9464000C9464000C9464000C946400C0
:100030000C9464000C9464000C9464000C946400B0
:100040000C9464000C9464000C9464000C946400A0
:100050000C9464000C9464000C9464000C94640090
:100060000C9464000C9464000C9464000C94640080
:100070000C9464000C9464000C9464000C94640070
:100080000C9464000C9464000C9464000C94640060
:100090000C9464000C9464000C9464000C94640050
:1000A0000C9464000C9464000C9464000C94640040
:1000B0000C94640011241FBECFEFD8E0DEBFCDBF8B
:1000C0000E9466000C94A8000C940000509A78944A
:1000D00084E090E00E94830080E090E00E948E0027
:1000E000FFCF1F920F920FB60F9211248F939F9301
:1000F0009BB181E089278BB99F918F910F900FBEA3
:100100000F901F901895F894A895E0E6F0E0908184
:1001100098619083886080837894089581309105F8
:1001200059F08230910571F0892B89F4E0E6F0E016
:100130008081806480830895E0E6F0E080818860BB
:1001400080830895E0E6F0E08081886480830895EC
:04015000F894FFCF51
:00000001FF
