:100000000C9434000C943E000C943E000C943E0082
:100010000C943E000C943E000C943E000C943E0068
:100020000C943E000C943E000C943E000C943E0058
:100030000C943E000C943E000C943E000C943E0048
:100040000C943E000C943E000C943E000C943E0038
:100050000C943E000C943E000C943E000C943E0028
:100060000C943E000C943E0011241FBECFEFD8E04C
:10007000DEBFCDBF0E94F2000C9403010C9400007F
:100080008BB184608BB98BB1877F8BB98BB18F7E3D
:100090008BB98BB18F7D8BB98FE39FE10197F1F71E
:1000A00000C0000008958BB184608BB98BB1877F4D
:1000B0008BB98BB18F7E8BB98BB180628BB98FE39B
:1000C0009FE10197F1F700C0000008958BB18B7F8D
:1000D0008BB98BB1877F8BB98BB18F7E8BB98BB18D
:1000E00080628BB98FE39FE10197F1F700C00000B8
:1000F00008958BB18B7F8BB98BB1877F8BB98BB117
:1001000080618BB98BB180628BB98FE39FE10197DE
:10011000F1F700C0000008958BB18B7F8BB98BB1D4
:10012000877F8BB98BB180618BB98BB18F7D8BB998
:100130008FE39FE10197F1F700C0000008958BB1B4
:100140008B7F8BB98BB188608BB98BB180618BB998
:100150008BB18F7D8BB98FE39FE10197F1F700C0E1
:10016000000008958BB18B7F8BB98BB188608BB900
:100170008BB18F7E8BB98BB180628BB98FE39FE19E
:100180000197F1F700C0000008958BB184608BB92E
:100190008BB188608BB98BB18F7E8BB98BB18F7D22
:1001A0008BB98FE39FE10197F1F700C0000008953C
:1001B000CF93DF93EC0111C00E9440000E945300D6
:1001C0000E9466000E9479000E948C000E949F009D
:1001D0000E94B2000E94C5002197209769F7DF9125
:1001E000CF9108958AB184608AB98AB188608AB94A
:1001F0008AB180618AB98AB180628AB982E390E06B
:0A0200000E94D800FFCFF894FFCF52
:00000001FF
