S022000041565241445633375F5A65726F43726F73734465746563746F722E7372656391
S11300000C9434000C94D8000C9451000C945100BE
S11300100C9451000C9451000C9451000C94510018
S11300200C9451000C9451000C9451000C948400D5
S11300300C9451000C9451000C9451000C945100F8
S11300400C9451000C9451000C9408010C943D0143
S11300500C9451000C9451000C9451000C945100D8
S11300600C9451000C94510011241FBECFEFD8E022
S1130070DEBFCDBF11E0A0E0B1E0E8E3F9E002C0EB
S113008005900D92A631B107D9F722E0A6E1B1E0BF
S113009001C01D92AC33B207E1F70E9453000C94E7
S11300A09A040C940000E9E6F0E080818260808389
S11300B08DB381608DBB10928000E1E8F0E0108286
S11300C0109285001092840083E294EF909389004B
S11300D080938800808188608083808184608083AD
S11300E0EFE6F0E08081826080832FEF81EE94E080
S11300F0215080409040E1F700C00000789487E6EA
S113010090E00E946901FFCF1F920F920FB60F92E9
S113011011242F933F934F935F936F937F938F9308
S11301209F93AF93BF93EF93FF9380911B029091A2
S11301301C0220911D0230911E0280931F02909395
S11301402002209321023093220210921B0210926B
S11301501C0210921D0210921E023F932F939F9334
S11301608F9380E091E09F938F9383E292E09F933B
S11301708F930E94B00183E292E00E94A3018DB7A5
S11301809EB708960FB6F8949EBF0FBE8DBFFF9121
S1130190EF91BF91AF919F918F917F916F915F91FB
S11301A04F913F912F910F900FBE0F901F90189574
S11301B01F920F920FB60F9211248F939F93AF93B8
S11301C0BF9380E005C04A9902C08F5F01C080E000
S11301D08A30C8F3882399F080911B0290911C0205
S11301E0A0911D02B0911E020196A11DB11D809324
S11301F01B0290931C02A0931D02B0931E02BF9198
S1130200AF919F918F910F900FBE0F901F901895F3
S11302101F920F920FB60F9211242F933F934F9377
S11302205F938F939F93EF93FF932091C00030913E
S1130230C60028718091180190E001968F77992764
S11302404091170150E08417950739F08093180105
S1130250FC01E55EFE4F308301C022E020931601CD
S1130260FF91EF919F918F915F914F913F912F91CA
S11302700F900FBE0F901F9018951F920F920FB6FC
S11302800F9211248F939F93EF93FF9390911A01F0
S113029080911901981779F08091190190E00196E5
S11302A08F77992780931901FC01E556FE4F8081D1
S11302B08093C60005C0E1ECF0E080818F7D8083EF
S11302C0FF91EF919F918F910F900FBE0F901F9010
S11302D018959C01F89491E009C010921A011092AB
S11302E01901109218011092170190E09111F5CFA5
S11302F07894332324F482E08093C0003F773093D2
S1130300C5002093C40088E98093C10086E08093EF
S1130310C200089540911A0150E04F5F5F4F4F773C
S113032055272091190130E042175307D1F3FA0100
S1130330E556FE4F808340931A01E1ECF0E08081A2
S1130340806280830895CF93DF93EC0103C02196EC
S11303500E948A0188818111FACFDF91CF9108959B
S1130360AEE0B0E0E6EBF1E00C9471040D891E8977
S113037086E08C831A8309838FEF9FE79E838D83A6
S1130380AE01475E5F4F6F89788DCE0101960E9462
S1130390D201EF81F885E00FF11F10822E96E4E080
S11303A00C948D04ABE0B0E0E8EDF1E00C94630450
S11303B06C017B018A01FC0117821682838181FF13
S11303C0CCC1CE0101963C01F6019381F70193FD66
S11303D0859193FF81917F01882309F4BAC1853205
S11303E039F493FD859193FF81917F01853229F43E
S11303F0B60190E00E94C903E7CF912C212C312C47
S1130400FFE1F315D8F08B3279F038F4803279F0CB
S11304108332A1F4232D20611DC08D3261F080331D
S113042069F4232D216016C0832D8260382EE32DBC
S1130430E4603E2E2AC0F32DF8601DC037FC2DC0A9
S113044020ED280F2A3040F08E32B9F436FC81C1F9
S1130450232D2064322E19C036FE06C08AE0989EF1
S1130460200D1124922E11C0EAE02E9E200D11249D
S1130470222EF32DF0623F2E08C08C3621F4832DFA
S11304808068382E02C0883641F4F70193FD8591C7
S113049093FF81917F018111B3CF982F9F7D955454
S11304A0933028F40C5F1F4F9FE399830DC083366C
S11304B031F0833771F0833509F059C021C0F80158
S11304C0808189830E5F1F4F88248394912C53016C
S11304D013C02801F2E04F0E511CF801A080B18036
S11304E036FE03C0692D70E002C06FEF7FEFC501D7
S11304F00E94BE034C018201F32DFF773F2E16C0EC
S1130500280122E0420E511CF801A080B18036FE81
S113051003C0692D70E002C06FEF7FEFC5010E9438
S1130520B3034C01F32DF0683F2E820133FC1BC052
S1130530822D90E088169906B0F4B60180E290E02E
S11305400E94C9032A94F4CFF50137FC859137FE44
S113055081915F01B60190E00E94C90321102A94A1
S113056021E0821A91088114910471F7E8C084365D
S113057011F0893641F5F80137FE07C060817181B9
S1130580828193810C5F1F4F08C060817181072EA7
S1130590000C880B990B0E5F1F4FF32DFF763F2E37
S11305A097FF09C090958095709561957F4F8F4F07
S11305B09F4FF0683F2E2AE030E0A3010E9405041B
S11305C0882E861845C0853731F4232D2F7EB22E10
S11305D02AE030E025C0932D997FB92E8F36C1F0E3
S11305E018F4883579F0B5C0803719F0883721F0D0
S11305F0B0C0E92FE061BE2EB4FE0DC0FB2DF46047
S1130600BF2E09C034FE0AC0292F2660B22E06C0B0
S113061028E030E005C020E130E002C020E132E013
S1130620F801B7FE07C060817181828193810C5FFC
S11306301F4F06C06081718180E090E00E5F1F4F04
S1130640A3010E940504882E8618FB2DFF773F2EF8
S113065036FE0DC0232D2E7FA22E891458F434FEAD
S11306600BC032FC09C0832D8E7EA82E05C0B82C89
S1130670A32C03C0B82C01C0B92CA4FE0FC0FE01EA
S1130680E80DF11D8081803321F49A2D997EA92EE5
S113069009C0A2FE06C0B394B39404C08A2D867820
S11306A009F0B394A3FC11C0A0FE06C0B21488F4F0
S11306B0280C922C9B180EC0B21460F4B60180E290
S11306C090E00E94C903B394F7CFB21418F42B1826
S11306D002C0982C212CA4FE10C0B60180E390E047
S11306E00E94C903A2FE17C0A1FC03C088E790E0E2
S11306F002C088E590E0B6010CC08A2D867859F0D6
S1130700A1FE02C08BE201C080E2A7FC8DE2B6012B
S113071090E00E94C903891438F4B60180E390E0A4
S11307200E94C9039A94F7CF8A94F301E80DF11D4E
S11307308081B60190E00E94C9038110F5CF222088
S113074009F442CEB60180E290E00E94C9032A94E3
S1130750F6CFF6018681978102C08FEF9FEF2B962B
S1130760E2E10C947F04FC0105906150704001109B
S1130770D8F7809590958E0F9F1F0895FC016150C6
S1130780704001900110D8F7809590958E0F9F1FAF
S113079008950F931F93CF93DF93FB01238121FDD2
S11307A003C08FEF9FEF2CC022FF16C046815781F4
S11307B0248135814217530744F4A081B1819D01FE
S11307C02F5F3F4F318320838C93268137812F5FA6
S11307D03F4F3783268314C08B01EC01FB01008457
S11307E0F185E02D0995892BE1F6D80116968D91B6
S11307F09C911797019617969C938E931697CE010A
S1130800DF91CF911F910F910895FA01AA27283003
S113081051F1203181F1E8946F936E7F6E5F7F4FC9
S11308208F4F9F4FAF4FB1E03ED0B4E03CD0670F45
S1130830781F891F9A1FA11D680F791F8A1F911D98
S1130840A11D6A0F711D811D911DA11D20D009F4E8
S113085068943F912AE0269F11243019305D31932A
S1130860DEF6CF010895462F4770405D4193B3E013
S11308700FD0C9F7F6CF462F4F70405D4A3318F0BA
S1130880495D31FD4052419302D0A9F7EACFB4E06B
S1130890A6959795879577956795BA95C9F7009723
S11308A06105710508959B01AC010A2E06945795C4
S11308B0479537952795BA95C9F7620F731F841F1B
S11308C0951FA01D08952F923F924F925F926F92B1
S11308D07F928F929F92AF92BF92CF92DF92EF92CC
S11308E0FF920F931F93CF93DF93CDB7DEB7CA1B4D
S11308F0DB0B0FB6F894DEBF0FBECDBF09942A8878
S1130900398848885F846E847D848C849B84AA841F
S1130910B984C884DF80EE80FD800C811B81AA81AC
S1130920B981CE0FD11D0FB6F894DEBF0FBECDBF77
S10B0930ED010895F894FFCFD6
S11309385A65726F2D43726F73732F73203A202593
S10909486C64200A0000AB
S9030000FC
