S01E000041565241445631355F4453333233314C4942524152592E7372656308
S11300000C9434000C9451000C9451000C94510045
S11300100C9451000C9451000C9451000C94510018
S11300200C9451000C9451000C9451000C94510008
S11300300C9451000C9451000C9451000C945100F8
S11300400C9451000C9451000C9483020C94B10252
S11300500C9451000C9451000C9451000C945100D8
S11300600C9451000C94510011241FBECFEFD8E022
S1130070DEBFCDBF11E0A0E0B1E0E8E0FCE002C0EB
S113008005900D92AA31B107D9F721E0AAE1B1E0B8
S113009001C01D92AF35B207E1F70E94BB010C9479
S11300A002060C940000CF9380ED0E94360280E09B
S11300B00E9466020E945D0281ED0E9436020E9447
S11300C07802C82F0E945D028C2F8F70C077C6956E
S11300D0C695C6959C2F990F990FC90F8C0FCF9178
S11300E00895CF9380ED0E94360281E00E9466025B
S11300F00E945D0281ED0E9436020E947802C82FA0
S11301000E945D028C2F8F70C077C695C695C695E8
S11301109C2F990F990FC90F8C0FCF910895CF93EE
S113012080ED0E94360282E00E9466020E945D0217
S113013081ED0E9436020E947802C82F0E945D025F
S11301408C2F8F70C4FB992790F9990F292F220FB8
S1130150220F290FC5FBCC27C0F9CC0FCC0F9C2F45
S1130160990F990FC90FC20F8C0FCF910895CF9398
S1130170C82F80ED0E94360281E00E9466029DEC49
S1130180C99F912D112496959695969580E1989FF7
S1130190A0011124990F292F220F220F920F8C2FC7
S11301A0891B842B0E9466020E945D02CF910895F0
S11301B0CF932DEC829F212D1124922F9695969505
S11301C09695990F392F330F330F930F891B982F5F
S11301D0269526952695213011F4C0E101C0C0E290
S11301E0C92B80ED0E94360282E00E9466028C2FA9
S11301F00E9466020E945D02CF910895CF9380ED24
S11302000E94360284E00E9466020E945D0281ED33
S11302100E9436020E947802C82F0E945D028C2F31
S11302208F70C077C695C695C6959C2F990F990F68
S1130230C90F8C0FCF910895CF9380ED0E943602A1
S113024085E00E9466020E945D0281ED0E943602F2
S11302500E947802C82F0E945D028C2F8F70C07795
S1130260C695C695C6959C2F990F990FC90F8C0FEB
S1130270CF910895CF9380ED0E94360286E00E94CC
S113028066020E945D0281ED0E9436020E9478029D
S1130290C82F0E945D028C2F8F70C077C695C695BB
S11302A0C6959C2F990F990FC90F8C0FCF91089564
S11302B0CF93C82F80ED0E94360284E00E9466022C
S11302C09DECC99F912D112496959695969580E164
S11302D0989FA0011124990F292F220F220F920F0A
S11302E08C2F891B842B0E9466020E945D02CF9191
S11302F00895CF93C82F80ED0E94360285E00E94B6
S113030066029DECC99F912D11249695969596951C
S113031080E1989FA0011124990F292F220F220F09
S1130320920F8C2F891B842B0E9466020E945D020F
S1130330CF910895CF93C82F80ED0E94360286E0B6
S11303400E9466029DECC99F912D11249695969565
S1130350969580E1989FA0011124990F292F220FCF
S1130360220F920F8C2F891B842B0E9466020E94FD
S11303705D02CF910895CF93DF93CDB7DEB7649735
S11303800FB6F894DEBF0FBECDBF789487E690E039
S11303900E94DB022FEF81EE94E0215080409040D8
S11303A0E1F700C000000E94300282E30E94B7001F
S11303B084E10E94D80086E00E94580186E00E94F1
S11303C0790186E00E949A010F2EF0E0CF2EF1E031
S11303D0DF2EF02D8E010F5F1F4F0F2EFBE0EF2E4F
S11303E0F1E0FF2EF02D0E945300A82E0E94710010
S11303F0B82E0E948F001F92AF921F92BF921F923D
S11304008F93DF92CF921F930F930E941803C8011A
S11304100E9409030E94FE00B82E0E941C01A82E0F
S11304200E943A011F928F931F92AF921F92BF9224
S1130430FF92EF921F930F930E941803C8010E942A
S113044009032FEF85EA9EE0215080409040E1F7B8
S113045000C000000FB6F894DEBF0FBECDBFC3CFFF
S11304601092B90088E48093B800089594EA9093B8
S1130470BC00ECEBF0E090819923ECF79091B9008B
S1130480987F983011F09031A1F48093BB0084E8F8
S11304908093BC00ECEBF0E080818823ECF7909132
S11304A0B900987F983139F081E0903429F480E0E4
S11304B0089581E0089580E0089584E98093BC0064
S11304C0ECEBF0E0808184FDFDCF08958093BB00C8
S11304D084E88093BC00ECEBF0E080818823ECF7A7
S11304E09091B900987F81E0983209F480E00895F2
S11304F084E88093BC00ECEBF0E080818823ECF787
S11305008091BB0008951F920F920FB60F92112491
S11305102F938F939F93EF93FF938091C00020912B
S1130520C6008C71E0911C01EF5FEF7190911B018B
S1130530E91739F0E0931C01F0E0E15EFE4F2083FF
S113054001C082E090911A01892B80931A01FF91D6
S1130550EF919F918F912F910F900FBE0F901F904D
S113056018951F920F920FB60F9211248F939F9399
S1130570EF93FF9390911E0180911D01981769F0EC
S1130580E0911D01EF5FEF71E0931D01F0E0E15C8C
S1130590FE4F80818093C60005C0E1ECF0E08081CD
S11305A08F7D8083FF91EF919F918F910F900FBE6C
S11305B00F901F90189510921E0110921D01109219
S11305C01C0110921B0199231CF422E02093C0000B
S11305D090789093C5008093C40088E98093C1000B
S11305E086E08093C200089520911E012F5F2F7131
S11305F090911D012917E1F3E22FF0E0E15CFE4F39
S1130600808320931E01E1ECF0E08081806280838E
S11306100895CF93DF93EC018881882331F02196EC
S11306200E94F40289918111FBCFDF91CF9108954B
S1130630AEE0B0E0EEE1F3E00C94D9050D891E893B
S113064086E08C831A8309838FEF9FE79E838D83D3
S1130650AE01475E5F4F6F89788DCE0101960E948F
S11306603A03EF81F885E00FF11F10822E96E4E043
S11306700C94F505ABE0B0E0E0E4F3E00C94CB05BA
S11306806C017B018A01FC0117821682838181FF40
S1130690CCC1CE0101963C01F6019381F70193FD93
S11306A0859193FF81917F01882309F4BAC1853232
S11306B039F493FD859193FF81917F01853229F46B
S11306C0B60190E00E943105E7CF912C212C312C0A
S11306D0FFE1F315D8F08B3279F038F4803279F0F9
S11306E08332A1F4232D20611DC08D3261F080334B
S11306F069F4232D216016C0832D8260382EE32DEA
S1130700E4603E2E2AC0F32DF8601DC037FC2DC0D6
S113071020ED280F2A3040F08E32B9F436FC81C126
S1130720232D2064322E19C036FE06C08AE0989E1E
S1130730200D1124922E11C0EAE02E9E200D1124CA
S1130740222EF32DF0623F2E08C08C3621F4832D27
S11307508068382E02C0883641F4F70193FD8591F4
S113076093FF81917F018111B3CF982F9F7D955481
S1130770933028F40C5F1F4F9FE399830DC0833699
S113078031F0833771F0833509F059C021C0F80185
S1130790808189830E5F1F4F88248394912C530199
S11307A013C02801F2E04F0E511CF801A080B18063
S11307B036FE03C0692D70E002C06FEF7FEFC50104
S11307C00E9426054C018201F32DFF773F2E16C0AF
S11307D0280122E0420E511CF801A080B18036FEAF
S11307E003C0692D70E002C06FEF7FEFC5010E9466
S11307F01B054C01F32DF0683F2E820133FC1BC016
S1130800822D90E088169906B0F4B60180E290E05B
S11308100E9431052A94F4CFF50137FC859137FE07
S113082081915F01B60190E00E94310521102A9464
S113083021E0821A91088114910471F7E8C084368A
S113084011F0893641F5F80137FE07C060817181E6
S1130850828193810C5F1F4F08C060817181072ED4
S1130860000C880B990B0E5F1F4FF32DFF763F2E64
S113087097FF09C090958095709561957F4F8F4F34
S11308809F4FF0683F2E2AE030E0A3010E946D05DF
S1130890882E861845C0853731F4232D2F7EB22E3D
S11308A02AE030E025C0932D997FB92E8F36C1F010
S11308B018F4883579F0B5C0803719F0883721F0FD
S11308C0B0C0E92FE061BE2EB4FE0DC0FB2DF46074
S11308D0BF2E09C034FE0AC0292F2660B22E06C0DE
S11308E028E030E005C020E130E002C020E132E041
S11308F0F801B7FE07C060817181828193810C5F2A
S11309001F4F06C06081718180E090E00E5F1F4F31
S1130910A3010E946D05882E8618FB2DFF773F2EBC
S113092036FE0DC0232D2E7FA22E891458F434FEDA
S11309300BC032FC09C0832D8E7EA82E05C0B82CB6
S1130940A32C03C0B82C01C0B92CA4FE0FC0FE0117
S1130950E80DF11D8081803321F49A2D997EA92E12
S113096009C0A2FE06C0B394B39404C08A2D86784D
S113097009F0B394A3FC11C0A0FE06C0B21488F41D
S1130980280C922C9B180EC0B21460F4B60180E2BD
S113099090E00E943105B394F7CFB21418F42B18E9
S11309A002C0982C212CA4FE10C0B60180E390E074
S11309B00E943105A2FE17C0A1FC03C088E790E0A5
S11309C002C088E590E0B6010CC08A2D867859F003
S11309D0A1FE02C08BE201C080E2A7FC8DE2B60159
S11309E090E00E943105891438F4B60180E390E068
S11309F00E9431059A94F7CF8A94F301E80DF11D12
S1130A008081B60190E00E9431058110F5CF22204B
S1130A1009F442CEB60180E290E00E9431052A94A6
S1130A20F6CFF6018681978102C08FEF9FEF2B9658
S1130A30E2E10C94E705FC0105906150704001105F
S1130A40D8F7809590958E0F9F1F0895FC016150F3
S1130A50704001900110D8F7809590958E0F9F1FDC
S1130A6008950F931F93CF93DF93FB01238121FDFF
S1130A7003C08FEF9FEF2CC022FF16C04681578121
S1130A80248135814217530744F4A081B1819D012B
S1130A902F5F3F4F318320838C93268137812F5FD3
S1130AA03F4F3783268314C08B01EC01FB01008484
S1130AB0F185E02D0995892BE1F6D80116968D91E3
S1130AC09C911797019617969C938E931697CE0137
S1130AD0DF91CF911F910F910895FA01AA27283031
S1130AE051F1203181F1E8946F936E7F6E5F7F4FF7
S1130AF08F4F9F4FAF4FB1E03ED0B4E03CD0670F73
S1130B00781F891F9A1FA11D680F791F8A1F911DC5
S1130B10A11D6A0F711D811D911DA11D20D009F415
S1130B2068943F912AE0269F11243019305D319357
S1130B30DEF6CF010895462F4770405D4193B3E040
S1130B400FD0C9F7F6CF462F4F70405D4A3318F0E7
S1130B50495D31FD4052419302D0A9F7EACFB4E098
S1130B60A6959795879577956795BA95C9F7009750
S1130B706105710508959B01AC010A2E06945795F1
S1130B80479537952795BA95C9F7620F731F841F48
S1130B90951FA01D08952F923F924F925F926F92DE
S1130BA07F928F929F92AF92BF92CF92DF92EF92F9
S1130BB0FF920F931F93CF93DF93CDB7DEB7CA1B7A
S1130BC0DB0B0FB6F894DEBF0FBECDBF09942A88A5
S1130BD0398848885F846E847D848C849B84AA844D
S1130BE0B984C884DF80EE80FD800C811B81AA81DA
S1130BF0B981CE0FD11D0FB6F894DEBF0FBECDBFA5
S10B0C00ED010895F894FFCF03
S1130C0825753A25753A2575200A002575202F2063
S10D0C182575202F202575200A0001
S9030000FC
